{
	"data": {
		"bytecode": {
			"linkReferences": {},
			"object": "608060405234801561001057600080fd5b5061001c60003361002c565b61002760003361002c565b6100d8565b610036828261003a565b5050565b6000828152602081815260408083206001600160a01b038516845290915290205460ff16610036576000828152602081815260408083206001600160a01b03851684529091529020805460ff191660011790556100943390565b6001600160a01b0316816001600160a01b0316837f2f8788117e7eff1d82e926ec794901d17c78024a50270940304540a733656f0d60405160405180910390a45050565b610ac3806100e76000396000f3fe608060405234801561001057600080fd5b50600436106100ea5760003560e01c80636bdfee311161008c578063a217fddf11610066578063a217fddf14610251578063a4acc64e14610259578063c3439f3f14610280578063d547741f146102a757600080fd5b80636bdfee31146101eb57806391d1485414610217578063926a694d1461022a57600080fd5b80632f2ff15d116100c85780632f2ff15d1461016f57806336568abe146101845780633b2b35b11461019757806365a46028146101aa57600080fd5b806301ffc9a7146100ef57806304a0fb1714610117578063248a9ca31461014c575b600080fd5b6101026100fd366004610898565b6102ba565b60405190151581526020015b60405180910390f35b61013e7f547b500e425d72fd0723933cceefc203cef652b4736fd04250c3369b3e1a0a7381565b60405190815260200161010e565b61013e61015a36600461084f565b60009081526020819052604090206001015490565b61018261017d366004610868565b6102f1565b005b610182610192366004610868565b61031c565b6101826101a53660046108df565b61039f565b6101d36101b83660046108c2565b6001602052600090815260409020546001600160a01b031681565b6040516001600160a01b03909116815260200161010e565b6101d36101f93660046108c2565b6001600160a01b039081166000908152600160205260409020541690565b610102610225366004610868565b6104be565b61013e7f0aaf57387812c7f832412470a57567b5648a930069be49aa9c98d04f88520d3481565b61013e600081565b61013e7f937fbfd55368d86c0bc9cd24ac22f41d808c497a869f6e5dc9b7570f6bd6f3d381565b61013e7f5b577a23637c13751ced46fd085304741466978bcfbb8d8caed77b00e4d78c2c81565b6101826102b5366004610868565b6104e7565b60006001600160e01b03198216637965db0b60e01b14806102eb57506301ffc9a760e01b6001600160e01b03198316145b92915050565b60008281526020819052604090206001015461030d813361050d565b6103178383610571565b505050565b6001600160a01b03811633146103915760405162461bcd60e51b815260206004820152602f60248201527f416363657373436f6e74726f6c3a2063616e206f6e6c792072656e6f756e636560448201526e103937b632b9903337b91039b2b63360891b60648201526084015b60405180910390fd5b61039b82826105f5565b5050565b6103a83361065a565b6103dd5760405162461bcd60e51b815260040161038890602080825260049082015263272320a960e11b604082015260600190565b6001600160a01b0382166104235760405162461bcd60e51b815260206004820152600d60248201526c5a65726f2063617465676f727960981b6044820152606401610388565b6001600160a01b0381166104675760405162461bcd60e51b815260206004820152600b60248201526a5a65726f206f7261636c6560a81b6044820152606401610388565b6001600160a01b0382811660008181526001602052604080822080546001600160a01b0319169486169485179055517f050ed5d9117c5f39267faccb58097c49cab0fe8c9f0269a3e3f7a7b561af7ee69190a35050565b6000918252602082815260408084206001600160a01b0393909316845291905290205460ff1690565b600082815260208190526040902060010154610503813361050d565b61031783836105f5565b61051782826104be565b61039b5761052f816001600160a01b03166014610674565b61053a836020610674565b60405160200161054b92919061090d565b60408051601f198184030181529082905262461bcd60e51b825261038891600401610982565b61057b82826104be565b61039b576000828152602081815260408083206001600160a01b03851684529091529020805460ff191660011790556105b13390565b6001600160a01b0316816001600160a01b0316837f2f8788117e7eff1d82e926ec794901d17c78024a50270940304540a733656f0d60405160405180910390a45050565b6105ff82826104be565b1561039b576000828152602081815260408083206001600160a01b0385168085529252808320805460ff1916905551339285917ff6391f5c32d9c69d2a47ea670b442974b53935d1edc7fd64eb21e047a839171b9190a45050565b600061066582610817565b806102eb57506102eb82610843565b606060006106838360026109cd565b61068e9060026109b5565b67ffffffffffffffff8111156106a6576106a6610a5f565b6040519080825280601f01601f1916602001820160405280156106d0576020820181803683370190505b509050600360fc1b816000815181106106eb576106eb610a49565b60200101906001600160f81b031916908160001a905350600f60fb1b8160018151811061071a5761071a610a49565b60200101906001600160f81b031916908160001a905350600061073e8460026109cd565b6107499060016109b5565b90505b60018111156107c1576f181899199a1a9b1b9c1cb0b131b232b360811b85600f166010811061077d5761077d610a49565b1a60f81b82828151811061079357610793610a49565b60200101906001600160f81b031916908160001a90535060049490941c936107ba81610a1c565b905061074c565b5083156108105760405162461bcd60e51b815260206004820181905260248201527f537472696e67733a20686578206c656e67746820696e73756666696369656e746044820152606401610388565b9392505050565b60006102eb7f547b500e425d72fd0723933cceefc203cef652b4736fd04250c3369b3e1a0a73836104be565b60006102eb81836104be565b60006020828403121561086157600080fd5b5035919050565b6000806040838503121561087b57600080fd5b82359150602083013561088d81610a75565b809150509250929050565b6000602082840312156108aa57600080fd5b81356001600160e01b03198116811461081057600080fd5b6000602082840312156108d457600080fd5b813561081081610a75565b600080604083850312156108f257600080fd5b82356108fd81610a75565b9150602083013561088d81610a75565b7f416363657373436f6e74726f6c3a206163636f756e74200000000000000000008152600083516109458160178501602088016109ec565b7001034b99036b4b9b9b4b733903937b6329607d1b60179184019182015283516109768160288401602088016109ec565b01602801949350505050565b60208152600082518060208401526109a18160408501602087016109ec565b601f01601f19169190910160400192915050565b600082198211156109c8576109c8610a33565b500190565b60008160001904831182151516156109e7576109e7610a33565b500290565b60005b83811015610a075781810151838201526020016109ef565b83811115610a16576000848401525b50505050565b600081610a2b57610a2b610a33565b506000190190565b634e487b7160e01b600052601160045260246000fd5b634e487b7160e01b600052603260045260246000fd5b634e487b7160e01b600052604160045260246000fd5b6001600160a01b0381168114610a8a57600080fd5b5056fea26469706673582212206e4a6770349caebb8cf185752dbd987cda5531cdef05749304746fa2d7dede5464736f6c63430008070033",
			"opcodes": "PUSH1 0x80 PUSH1 0x40 MSTORE CALLVALUE DUP1 ISZERO PUSH2 0x10 JUMPI PUSH1 0x0 DUP1 REVERT JUMPDEST POP PUSH2 0x1C PUSH1 0x0 CALLER PUSH2 0x2C JUMP JUMPDEST PUSH2 0x27 PUSH1 0x0 CALLER PUSH2 0x2C JUMP JUMPDEST PUSH2 0xD8 JUMP JUMPDEST PUSH2 0x36 DUP3 DUP3 PUSH2 0x3A JUMP JUMPDEST POP POP JUMP JUMPDEST PUSH1 0x0 DUP3 DUP2 MSTORE PUSH1 0x20 DUP2 DUP2 MSTORE PUSH1 0x40 DUP1 DUP4 KECCAK256 PUSH1 0x1 PUSH1 0x1 PUSH1 0xA0 SHL SUB DUP6 AND DUP5 MSTORE SWAP1 SWAP2 MSTORE SWAP1 KECCAK256 SLOAD PUSH1 0xFF AND PUSH2 0x36 JUMPI PUSH1 0x0 DUP3 DUP2 MSTORE PUSH1 0x20 DUP2 DUP2 MSTORE PUSH1 0x40 DUP1 DUP4 KECCAK256 PUSH1 0x1 PUSH1 0x1 PUSH1 0xA0 SHL SUB DUP6 AND DUP5 MSTORE SWAP1 SWAP2 MSTORE SWAP1 KECCAK256 DUP1 SLOAD PUSH1 0xFF NOT AND PUSH1 0x1 OR SWAP1 SSTORE PUSH2 0x94 CALLER SWAP1 JUMP JUMPDEST PUSH1 0x1 PUSH1 0x1 PUSH1 0xA0 SHL SUB AND DUP2 PUSH1 0x1 PUSH1 0x1 PUSH1 0xA0 SHL SUB AND DUP4 PUSH32 0x2F8788117E7EFF1D82E926EC794901D17C78024A50270940304540A733656F0D PUSH1 0x40 MLOAD PUSH1 0x40 MLOAD DUP1 SWAP2 SUB SWAP1 LOG4 POP POP JUMP JUMPDEST PUSH2 0xAC3 DUP1 PUSH2 0xE7 PUSH1 0x0 CODECOPY PUSH1 0x0 RETURN INVALID PUSH1 0x80 PUSH1 0x40 MSTORE CALLVALUE DUP1 ISZERO PUSH2 0x10 JUMPI PUSH1 0x0 DUP1 REVERT JUMPDEST POP PUSH1 0x4 CALLDATASIZE LT PUSH2 0xEA JUMPI PUSH1 0x0 CALLDATALOAD PUSH1 0xE0 SHR DUP1 PUSH4 0x6BDFEE31 GT PUSH2 0x8C JUMPI DUP1 PUSH4 0xA217FDDF GT PUSH2 0x66 JUMPI DUP1 PUSH4 0xA217FDDF EQ PUSH2 0x251 JUMPI DUP1 PUSH4 0xA4ACC64E EQ PUSH2 0x259 JUMPI DUP1 PUSH4 0xC3439F3F EQ PUSH2 0x280 JUMPI DUP1 PUSH4 0xD547741F EQ PUSH2 0x2A7 JUMPI PUSH1 0x0 DUP1 REVERT JUMPDEST DUP1 PUSH4 0x6BDFEE31 EQ PUSH2 0x1EB JUMPI DUP1 PUSH4 0x91D14854 EQ PUSH2 0x217 JUMPI DUP1 PUSH4 0x926A694D EQ PUSH2 0x22A JUMPI PUSH1 0x0 DUP1 REVERT JUMPDEST DUP1 PUSH4 0x2F2FF15D GT PUSH2 0xC8 JUMPI DUP1 PUSH4 0x2F2FF15D EQ PUSH2 0x16F JUMPI DUP1 PUSH4 0x36568ABE EQ PUSH2 0x184 JUMPI DUP1 PUSH4 0x3B2B35B1 EQ PUSH2 0x197 JUMPI DUP1 PUSH4 0x65A46028 EQ PUSH2 0x1AA JUMPI PUSH1 0x0 DUP1 REVERT JUMPDEST DUP1 PUSH4 0x1FFC9A7 EQ PUSH2 0xEF JUMPI DUP1 PUSH4 0x4A0FB17 EQ PUSH2 0x117 JUMPI DUP1 PUSH4 0x248A9CA3 EQ PUSH2 0x14C JUMPI JUMPDEST PUSH1 0x0 DUP1 REVERT JUMPDEST PUSH2 0x102 PUSH2 0xFD CALLDATASIZE PUSH1 0x4 PUSH2 0x898 JUMP JUMPDEST PUSH2 0x2BA JUMP JUMPDEST PUSH1 0x40 MLOAD SWAP1 ISZERO ISZERO DUP2 MSTORE PUSH1 0x20 ADD JUMPDEST PUSH1 0x40 MLOAD DUP1 SWAP2 SUB SWAP1 RETURN JUMPDEST PUSH2 0x13E PUSH32 0x547B500E425D72FD0723933CCEEFC203CEF652B4736FD04250C3369B3E1A0A73 DUP2 JUMP JUMPDEST PUSH1 0x40 MLOAD SWAP1 DUP2 MSTORE PUSH1 0x20 ADD PUSH2 0x10E JUMP JUMPDEST PUSH2 0x13E PUSH2 0x15A CALLDATASIZE PUSH1 0x4 PUSH2 0x84F JUMP JUMPDEST PUSH1 0x0 SWAP1 DUP2 MSTORE PUSH1 0x20 DUP2 SWAP1 MSTORE PUSH1 0x40 SWAP1 KECCAK256 PUSH1 0x1 ADD SLOAD SWAP1 JUMP JUMPDEST PUSH2 0x182 PUSH2 0x17D CALLDATASIZE PUSH1 0x4 PUSH2 0x868 JUMP JUMPDEST PUSH2 0x2F1 JUMP JUMPDEST STOP JUMPDEST PUSH2 0x182 PUSH2 0x192 CALLDATASIZE PUSH1 0x4 PUSH2 0x868 JUMP JUMPDEST PUSH2 0x31C JUMP JUMPDEST PUSH2 0x182 PUSH2 0x1A5 CALLDATASIZE PUSH1 0x4 PUSH2 0x8DF JUMP JUMPDEST PUSH2 0x39F JUMP JUMPDEST PUSH2 0x1D3 PUSH2 0x1B8 CALLDATASIZE PUSH1 0x4 PUSH2 0x8C2 JUMP JUMPDEST PUSH1 0x1 PUSH1 0x20 MSTORE PUSH1 0x0 SWAP1 DUP2 MSTORE PUSH1 0x40 SWAP1 KECCAK256 SLOAD PUSH1 0x1 PUSH1 0x1 PUSH1 0xA0 SHL SUB AND DUP2 JUMP JUMPDEST PUSH1 0x40 MLOAD PUSH1 0x1 PUSH1 0x1 PUSH1 0xA0 SHL SUB SWAP1 SWAP2 AND DUP2 MSTORE PUSH1 0x20 ADD PUSH2 0x10E JUMP JUMPDEST PUSH2 0x1D3 PUSH2 0x1F9 CALLDATASIZE PUSH1 0x4 PUSH2 0x8C2 JUMP JUMPDEST PUSH1 0x1 PUSH1 0x1 PUSH1 0xA0 SHL SUB SWAP1 DUP2 AND PUSH1 0x0 SWAP1 DUP2 MSTORE PUSH1 0x1 PUSH1 0x20 MSTORE PUSH1 0x40 SWAP1 KECCAK256 SLOAD AND SWAP1 JUMP JUMPDEST PUSH2 0x102 PUSH2 0x225 CALLDATASIZE PUSH1 0x4 PUSH2 0x868 JUMP JUMPDEST PUSH2 0x4BE JUMP JUMPDEST PUSH2 0x13E PUSH32 0xAAF57387812C7F832412470A57567B5648A930069BE49AA9C98D04F88520D34 DUP2 JUMP JUMPDEST PUSH2 0x13E PUSH1 0x0 DUP2 JUMP JUMPDEST PUSH2 0x13E PUSH32 0x937FBFD55368D86C0BC9CD24AC22F41D808C497A869F6E5DC9B7570F6BD6F3D3 DUP2 JUMP JUMPDEST PUSH2 0x13E PUSH32 0x5B577A23637C13751CED46FD085304741466978BCFBB8D8CAED77B00E4D78C2C DUP2 JUMP JUMPDEST PUSH2 0x182 PUSH2 0x2B5 CALLDATASIZE PUSH1 0x4 PUSH2 0x868 JUMP JUMPDEST PUSH2 0x4E7 JUMP JUMPDEST PUSH1 0x0 PUSH1 0x1 PUSH1 0x1 PUSH1 0xE0 SHL SUB NOT DUP3 AND PUSH4 0x7965DB0B PUSH1 0xE0 SHL EQ DUP1 PUSH2 0x2EB JUMPI POP PUSH4 0x1FFC9A7 PUSH1 0xE0 SHL PUSH1 0x1 PUSH1 0x1 PUSH1 0xE0 SHL SUB NOT DUP4 AND EQ JUMPDEST SWAP3 SWAP2 POP POP JUMP JUMPDEST PUSH1 0x0 DUP3 DUP2 MSTORE PUSH1 0x20 DUP2 SWAP1 MSTORE PUSH1 0x40 SWAP1 KECCAK256 PUSH1 0x1 ADD SLOAD PUSH2 0x30D DUP2 CALLER PUSH2 0x50D JUMP JUMPDEST PUSH2 0x317 DUP4 DUP4 PUSH2 0x571 JUMP JUMPDEST POP POP POP JUMP JUMPDEST PUSH1 0x1 PUSH1 0x1 PUSH1 0xA0 SHL SUB DUP2 AND CALLER EQ PUSH2 0x391 JUMPI PUSH1 0x40 MLOAD PUSH3 0x461BCD PUSH1 0xE5 SHL DUP2 MSTORE PUSH1 0x20 PUSH1 0x4 DUP3 ADD MSTORE PUSH1 0x2F PUSH1 0x24 DUP3 ADD MSTORE PUSH32 0x416363657373436F6E74726F6C3A2063616E206F6E6C792072656E6F756E6365 PUSH1 0x44 DUP3 ADD MSTORE PUSH15 0x103937B632B9903337B91039B2B633 PUSH1 0x89 SHL PUSH1 0x64 DUP3 ADD MSTORE PUSH1 0x84 ADD JUMPDEST PUSH1 0x40 MLOAD DUP1 SWAP2 SUB SWAP1 REVERT JUMPDEST PUSH2 0x39B DUP3 DUP3 PUSH2 0x5F5 JUMP JUMPDEST POP POP JUMP JUMPDEST PUSH2 0x3A8 CALLER PUSH2 0x65A JUMP JUMPDEST PUSH2 0x3DD JUMPI PUSH1 0x40 MLOAD PUSH3 0x461BCD PUSH1 0xE5 SHL DUP2 MSTORE PUSH1 0x4 ADD PUSH2 0x388 SWAP1 PUSH1 0x20 DUP1 DUP3 MSTORE PUSH1 0x4 SWAP1 DUP3 ADD MSTORE PUSH4 0x272320A9 PUSH1 0xE1 SHL PUSH1 0x40 DUP3 ADD MSTORE PUSH1 0x60 ADD SWAP1 JUMP JUMPDEST PUSH1 0x1 PUSH1 0x1 PUSH1 0xA0 SHL SUB DUP3 AND PUSH2 0x423 JUMPI PUSH1 0x40 MLOAD PUSH3 0x461BCD PUSH1 0xE5 SHL DUP2 MSTORE PUSH1 0x20 PUSH1 0x4 DUP3 ADD MSTORE PUSH1 0xD PUSH1 0x24 DUP3 ADD MSTORE PUSH13 0x5A65726F2063617465676F7279 PUSH1 0x98 SHL PUSH1 0x44 DUP3 ADD MSTORE PUSH1 0x64 ADD PUSH2 0x388 JUMP JUMPDEST PUSH1 0x1 PUSH1 0x1 PUSH1 0xA0 SHL SUB DUP2 AND PUSH2 0x467 JUMPI PUSH1 0x40 MLOAD PUSH3 0x461BCD PUSH1 0xE5 SHL DUP2 MSTORE PUSH1 0x20 PUSH1 0x4 DUP3 ADD MSTORE PUSH1 0xB PUSH1 0x24 DUP3 ADD MSTORE PUSH11 0x5A65726F206F7261636C65 PUSH1 0xA8 SHL PUSH1 0x44 DUP3 ADD MSTORE PUSH1 0x64 ADD PUSH2 0x388 JUMP JUMPDEST PUSH1 0x1 PUSH1 0x1 PUSH1 0xA0 SHL SUB DUP3 DUP2 AND PUSH1 0x0 DUP2 DUP2 MSTORE PUSH1 0x1 PUSH1 0x20 MSTORE PUSH1 0x40 DUP1 DUP3 KECCAK256 DUP1 SLOAD PUSH1 0x1 PUSH1 0x1 PUSH1 0xA0 SHL SUB NOT AND SWAP5 DUP7 AND SWAP5 DUP6 OR SWAP1 SSTORE MLOAD PUSH32 0x50ED5D9117C5F39267FACCB58097C49CAB0FE8C9F0269A3E3F7A7B561AF7EE6 SWAP2 SWAP1 LOG3 POP POP JUMP JUMPDEST PUSH1 0x0 SWAP2 DUP3 MSTORE PUSH1 0x20 DUP3 DUP2 MSTORE PUSH1 0x40 DUP1 DUP5 KECCAK256 PUSH1 0x1 PUSH1 0x1 PUSH1 0xA0 SHL SUB SWAP4 SWAP1 SWAP4 AND DUP5 MSTORE SWAP2 SWAP1 MSTORE SWAP1 KECCAK256 SLOAD PUSH1 0xFF AND SWAP1 JUMP JUMPDEST PUSH1 0x0 DUP3 DUP2 MSTORE PUSH1 0x20 DUP2 SWAP1 MSTORE PUSH1 0x40 SWAP1 KECCAK256 PUSH1 0x1 ADD SLOAD PUSH2 0x503 DUP2 CALLER PUSH2 0x50D JUMP JUMPDEST PUSH2 0x317 DUP4 DUP4 PUSH2 0x5F5 JUMP JUMPDEST PUSH2 0x517 DUP3 DUP3 PUSH2 0x4BE JUMP JUMPDEST PUSH2 0x39B JUMPI PUSH2 0x52F DUP2 PUSH1 0x1 PUSH1 0x1 PUSH1 0xA0 SHL SUB AND PUSH1 0x14 PUSH2 0x674 JUMP JUMPDEST PUSH2 0x53A DUP4 PUSH1 0x20 PUSH2 0x674 JUMP JUMPDEST PUSH1 0x40 MLOAD PUSH1 0x20 ADD PUSH2 0x54B SWAP3 SWAP2 SWAP1 PUSH2 0x90D JUMP JUMPDEST PUSH1 0x40 DUP1 MLOAD PUSH1 0x1F NOT DUP2 DUP5 SUB ADD DUP2 MSTORE SWAP1 DUP3 SWAP1 MSTORE PUSH3 0x461BCD PUSH1 0xE5 SHL DUP3 MSTORE PUSH2 0x388 SWAP2 PUSH1 0x4 ADD PUSH2 0x982 JUMP JUMPDEST PUSH2 0x57B DUP3 DUP3 PUSH2 0x4BE JUMP JUMPDEST PUSH2 0x39B JUMPI PUSH1 0x0 DUP3 DUP2 MSTORE PUSH1 0x20 DUP2 DUP2 MSTORE PUSH1 0x40 DUP1 DUP4 KECCAK256 PUSH1 0x1 PUSH1 0x1 PUSH1 0xA0 SHL SUB DUP6 AND DUP5 MSTORE SWAP1 SWAP2 MSTORE SWAP1 KECCAK256 DUP1 SLOAD PUSH1 0xFF NOT AND PUSH1 0x1 OR SWAP1 SSTORE PUSH2 0x5B1 CALLER SWAP1 JUMP JUMPDEST PUSH1 0x1 PUSH1 0x1 PUSH1 0xA0 SHL SUB AND DUP2 PUSH1 0x1 PUSH1 0x1 PUSH1 0xA0 SHL SUB AND DUP4 PUSH32 0x2F8788117E7EFF1D82E926EC794901D17C78024A50270940304540A733656F0D PUSH1 0x40 MLOAD PUSH1 0x40 MLOAD DUP1 SWAP2 SUB SWAP1 LOG4 POP POP JUMP JUMPDEST PUSH2 0x5FF DUP3 DUP3 PUSH2 0x4BE JUMP JUMPDEST ISZERO PUSH2 0x39B JUMPI PUSH1 0x0 DUP3 DUP2 MSTORE PUSH1 0x20 DUP2 DUP2 MSTORE PUSH1 0x40 DUP1 DUP4 KECCAK256 PUSH1 0x1 PUSH1 0x1 PUSH1 0xA0 SHL SUB DUP6 AND DUP1 DUP6 MSTORE SWAP3 MSTORE DUP1 DUP4 KECCAK256 DUP1 SLOAD PUSH1 0xFF NOT AND SWAP1 SSTORE MLOAD CALLER SWAP3 DUP6 SWAP2 PUSH32 0xF6391F5C32D9C69D2A47EA670B442974B53935D1EDC7FD64EB21E047A839171B SWAP2 SWAP1 LOG4 POP POP JUMP JUMPDEST PUSH1 0x0 PUSH2 0x665 DUP3 PUSH2 0x817 JUMP JUMPDEST DUP1 PUSH2 0x2EB JUMPI POP PUSH2 0x2EB DUP3 PUSH2 0x843 JUMP JUMPDEST PUSH1 0x60 PUSH1 0x0 PUSH2 0x683 DUP4 PUSH1 0x2 PUSH2 0x9CD JUMP JUMPDEST PUSH2 0x68E SWAP1 PUSH1 0x2 PUSH2 0x9B5 JUMP JUMPDEST PUSH8 0xFFFFFFFFFFFFFFFF DUP2 GT ISZERO PUSH2 0x6A6 JUMPI PUSH2 0x6A6 PUSH2 0xA5F JUMP JUMPDEST PUSH1 0x40 MLOAD SWAP1 DUP1 DUP3 MSTORE DUP1 PUSH1 0x1F ADD PUSH1 0x1F NOT AND PUSH1 0x20 ADD DUP3 ADD PUSH1 0x40 MSTORE DUP1 ISZERO PUSH2 0x6D0 JUMPI PUSH1 0x20 DUP3 ADD DUP2 DUP1 CALLDATASIZE DUP4 CALLDATACOPY ADD SWAP1 POP JUMPDEST POP SWAP1 POP PUSH1 0x3 PUSH1 0xFC SHL DUP2 PUSH1 0x0 DUP2 MLOAD DUP2 LT PUSH2 0x6EB JUMPI PUSH2 0x6EB PUSH2 0xA49 JUMP JUMPDEST PUSH1 0x20 ADD ADD SWAP1 PUSH1 0x1 PUSH1 0x1 PUSH1 0xF8 SHL SUB NOT AND SWAP1 DUP2 PUSH1 0x0 BYTE SWAP1 MSTORE8 POP PUSH1 0xF PUSH1 0xFB SHL DUP2 PUSH1 0x1 DUP2 MLOAD DUP2 LT PUSH2 0x71A JUMPI PUSH2 0x71A PUSH2 0xA49 JUMP JUMPDEST PUSH1 0x20 ADD ADD SWAP1 PUSH1 0x1 PUSH1 0x1 PUSH1 0xF8 SHL SUB NOT AND SWAP1 DUP2 PUSH1 0x0 BYTE SWAP1 MSTORE8 POP PUSH1 0x0 PUSH2 0x73E DUP5 PUSH1 0x2 PUSH2 0x9CD JUMP JUMPDEST PUSH2 0x749 SWAP1 PUSH1 0x1 PUSH2 0x9B5 JUMP JUMPDEST SWAP1 POP JUMPDEST PUSH1 0x1 DUP2 GT ISZERO PUSH2 0x7C1 JUMPI PUSH16 0x181899199A1A9B1B9C1CB0B131B232B3 PUSH1 0x81 SHL DUP6 PUSH1 0xF AND PUSH1 0x10 DUP2 LT PUSH2 0x77D JUMPI PUSH2 0x77D PUSH2 0xA49 JUMP JUMPDEST BYTE PUSH1 0xF8 SHL DUP3 DUP3 DUP2 MLOAD DUP2 LT PUSH2 0x793 JUMPI PUSH2 0x793 PUSH2 0xA49 JUMP JUMPDEST PUSH1 0x20 ADD ADD SWAP1 PUSH1 0x1 PUSH1 0x1 PUSH1 0xF8 SHL SUB NOT AND SWAP1 DUP2 PUSH1 0x0 BYTE SWAP1 MSTORE8 POP PUSH1 0x4 SWAP5 SWAP1 SWAP5 SHR SWAP4 PUSH2 0x7BA DUP2 PUSH2 0xA1C JUMP JUMPDEST SWAP1 POP PUSH2 0x74C JUMP JUMPDEST POP DUP4 ISZERO PUSH2 0x810 JUMPI PUSH1 0x40 MLOAD PUSH3 0x461BCD PUSH1 0xE5 SHL DUP2 MSTORE PUSH1 0x20 PUSH1 0x4 DUP3 ADD DUP2 SWAP1 MSTORE PUSH1 0x24 DUP3 ADD MSTORE PUSH32 0x537472696E67733A20686578206C656E67746820696E73756666696369656E74 PUSH1 0x44 DUP3 ADD MSTORE PUSH1 0x64 ADD PUSH2 0x388 JUMP JUMPDEST SWAP4 SWAP3 POP POP POP JUMP JUMPDEST PUSH1 0x0 PUSH2 0x2EB PUSH32 0x547B500E425D72FD0723933CCEEFC203CEF652B4736FD04250C3369B3E1A0A73 DUP4 PUSH2 0x4BE JUMP JUMPDEST PUSH1 0x0 PUSH2 0x2EB DUP2 DUP4 PUSH2 0x4BE JUMP JUMPDEST PUSH1 0x0 PUSH1 0x20 DUP3 DUP5 SUB SLT ISZERO PUSH2 0x861 JUMPI PUSH1 0x0 DUP1 REVERT JUMPDEST POP CALLDATALOAD SWAP2 SWAP1 POP JUMP JUMPDEST PUSH1 0x0 DUP1 PUSH1 0x40 DUP4 DUP6 SUB SLT ISZERO PUSH2 0x87B JUMPI PUSH1 0x0 DUP1 REVERT JUMPDEST DUP3 CALLDATALOAD SWAP2 POP PUSH1 0x20 DUP4 ADD CALLDATALOAD PUSH2 0x88D DUP2 PUSH2 0xA75 JUMP JUMPDEST DUP1 SWAP2 POP POP SWAP3 POP SWAP3 SWAP1 POP JUMP JUMPDEST PUSH1 0x0 PUSH1 0x20 DUP3 DUP5 SUB SLT ISZERO PUSH2 0x8AA JUMPI PUSH1 0x0 DUP1 REVERT JUMPDEST DUP2 CALLDATALOAD PUSH1 0x1 PUSH1 0x1 PUSH1 0xE0 SHL SUB NOT DUP2 AND DUP2 EQ PUSH2 0x810 JUMPI PUSH1 0x0 DUP1 REVERT JUMPDEST PUSH1 0x0 PUSH1 0x20 DUP3 DUP5 SUB SLT ISZERO PUSH2 0x8D4 JUMPI PUSH1 0x0 DUP1 REVERT JUMPDEST DUP2 CALLDATALOAD PUSH2 0x810 DUP2 PUSH2 0xA75 JUMP JUMPDEST PUSH1 0x0 DUP1 PUSH1 0x40 DUP4 DUP6 SUB SLT ISZERO PUSH2 0x8F2 JUMPI PUSH1 0x0 DUP1 REVERT JUMPDEST DUP3 CALLDATALOAD PUSH2 0x8FD DUP2 PUSH2 0xA75 JUMP JUMPDEST SWAP2 POP PUSH1 0x20 DUP4 ADD CALLDATALOAD PUSH2 0x88D DUP2 PUSH2 0xA75 JUMP JUMPDEST PUSH32 0x416363657373436F6E74726F6C3A206163636F756E7420000000000000000000 DUP2 MSTORE PUSH1 0x0 DUP4 MLOAD PUSH2 0x945 DUP2 PUSH1 0x17 DUP6 ADD PUSH1 0x20 DUP9 ADD PUSH2 0x9EC JUMP JUMPDEST PUSH17 0x1034B99036B4B9B9B4B733903937B6329 PUSH1 0x7D SHL PUSH1 0x17 SWAP2 DUP5 ADD SWAP2 DUP3 ADD MSTORE DUP4 MLOAD PUSH2 0x976 DUP2 PUSH1 0x28 DUP5 ADD PUSH1 0x20 DUP9 ADD PUSH2 0x9EC JUMP JUMPDEST ADD PUSH1 0x28 ADD SWAP5 SWAP4 POP POP POP POP JUMP JUMPDEST PUSH1 0x20 DUP2 MSTORE PUSH1 0x0 DUP3 MLOAD DUP1 PUSH1 0x20 DUP5 ADD MSTORE PUSH2 0x9A1 DUP2 PUSH1 0x40 DUP6 ADD PUSH1 0x20 DUP8 ADD PUSH2 0x9EC JUMP JUMPDEST PUSH1 0x1F ADD PUSH1 0x1F NOT AND SWAP2 SWAP1 SWAP2 ADD PUSH1 0x40 ADD SWAP3 SWAP2 POP POP JUMP JUMPDEST PUSH1 0x0 DUP3 NOT DUP3 GT ISZERO PUSH2 0x9C8 JUMPI PUSH2 0x9C8 PUSH2 0xA33 JUMP JUMPDEST POP ADD SWAP1 JUMP JUMPDEST PUSH1 0x0 DUP2 PUSH1 0x0 NOT DIV DUP4 GT DUP3 ISZERO ISZERO AND ISZERO PUSH2 0x9E7 JUMPI PUSH2 0x9E7 PUSH2 0xA33 JUMP JUMPDEST POP MUL SWAP1 JUMP JUMPDEST PUSH1 0x0 JUMPDEST DUP4 DUP2 LT ISZERO PUSH2 0xA07 JUMPI DUP2 DUP2 ADD MLOAD DUP4 DUP3 ADD MSTORE PUSH1 0x20 ADD PUSH2 0x9EF JUMP JUMPDEST DUP4 DUP2 GT ISZERO PUSH2 0xA16 JUMPI PUSH1 0x0 DUP5 DUP5 ADD MSTORE JUMPDEST POP POP POP POP JUMP JUMPDEST PUSH1 0x0 DUP2 PUSH2 0xA2B JUMPI PUSH2 0xA2B PUSH2 0xA33 JUMP JUMPDEST POP PUSH1 0x0 NOT ADD SWAP1 JUMP JUMPDEST PUSH4 0x4E487B71 PUSH1 0xE0 SHL PUSH1 0x0 MSTORE PUSH1 0x11 PUSH1 0x4 MSTORE PUSH1 0x24 PUSH1 0x0 REVERT JUMPDEST PUSH4 0x4E487B71 PUSH1 0xE0 SHL PUSH1 0x0 MSTORE PUSH1 0x32 PUSH1 0x4 MSTORE PUSH1 0x24 PUSH1 0x0 REVERT JUMPDEST PUSH4 0x4E487B71 PUSH1 0xE0 SHL PUSH1 0x0 MSTORE PUSH1 0x41 PUSH1 0x4 MSTORE PUSH1 0x24 PUSH1 0x0 REVERT JUMPDEST PUSH1 0x1 PUSH1 0x1 PUSH1 0xA0 SHL SUB DUP2 AND DUP2 EQ PUSH2 0xA8A JUMPI PUSH1 0x0 DUP1 REVERT JUMPDEST POP JUMP INVALID LOG2 PUSH5 0x6970667358 0x22 SLT KECCAK256 PUSH15 0x4A6770349CAEBB8CF185752DBD987C 0xDA SSTORE BALANCE 0xCD 0xEF SDIV PUSH21 0x9304746FA2D7DEDE5464736F6C6343000807003300 "
		},
		"gasEstimates": {
			"creation": {
				"codeDepositCost": "551000",
				"executionCost": "infinite",
				"totalCost": "infinite"
			},
			"external": {
				"DEFAULT_ADMIN_ROLE()": "217",
				"FACTORY_ROLE()": "241",
				"MARKETPLACE_ROLE()": "261",
				"STORAGE_OPERATOR_ROLE()": "239",
				"VENDOR_ROLE()": "262",
				"getPriceOracleForCategory(address)": "2584",
				"getRoleAdmin(bytes32)": "2515",
				"grantRole(bytes32,address)": "infinite",
				"hasRole(bytes32,address)": "2695",
				"oracleForCategory(address)": "2641",
				"renounceRole(bytes32,address)": "29039",
				"revokeRole(bytes32,address)": "infinite",
				"setOracleForCategory(address,address)": "infinite",
				"supportsInterface(bytes4)": "450"
			}
		},
		"methodIdentifiers": {
			"DEFAULT_ADMIN_ROLE()": "a217fddf",
			"FACTORY_ROLE()": "04a0fb17",
			"MARKETPLACE_ROLE()": "c3439f3f",
			"STORAGE_OPERATOR_ROLE()": "a4acc64e",
			"VENDOR_ROLE()": "926a694d",
			"getPriceOracleForCategory(address)": "6bdfee31",
			"getRoleAdmin(bytes32)": "248a9ca3",
			"grantRole(bytes32,address)": "2f2ff15d",
			"hasRole(bytes32,address)": "91d14854",
			"oracleForCategory(address)": "65a46028",
			"renounceRole(bytes32,address)": "36568abe",
			"revokeRole(bytes32,address)": "d547741f",
			"setOracleForCategory(address,address)": "3b2b35b1",
			"supportsInterface(bytes4)": "01ffc9a7"
		}
	},
	"abi": [
		{
			"inputs": [],
			"stateMutability": "nonpayable",
			"type": "constructor"
		},
		{
			"anonymous": false,
			"inputs": [
				{
					"indexed": true,
					"internalType": "address",
					"name": "category",
					"type": "address"
				},
				{
					"indexed": true,
					"internalType": "address",
					"name": "priceOracle",
					"type": "address"
				}
			],
			"name": "CategoryPriceOracleAdded",
			"type": "event"
		},
		{
			"anonymous": false,
			"inputs": [
				{
					"indexed": true,
					"internalType": "bytes32",
					"name": "role",
					"type": "bytes32"
				},
				{
					"indexed": true,
					"internalType": "bytes32",
					"name": "previousAdminRole",
					"type": "bytes32"
				},
				{
					"indexed": true,
					"internalType": "bytes32",
					"name": "newAdminRole",
					"type": "bytes32"
				}
			],
			"name": "RoleAdminChanged",
			"type": "event"
		},
		{
			"anonymous": false,
			"inputs": [
				{
					"indexed": true,
					"internalType": "bytes32",
					"name": "role",
					"type": "bytes32"
				},
				{
					"indexed": true,
					"internalType": "address",
					"name": "account",
					"type": "address"
				},
				{
					"indexed": true,
					"internalType": "address",
					"name": "sender",
					"type": "address"
				}
			],
			"name": "RoleGranted",
			"type": "event"
		},
		{
			"anonymous": false,
			"inputs": [
				{
					"indexed": true,
					"internalType": "bytes32",
					"name": "role",
					"type": "bytes32"
				},
				{
					"indexed": true,
					"internalType": "address",
					"name": "account",
					"type": "address"
				},
				{
					"indexed": true,
					"internalType": "address",
					"name": "sender",
					"type": "address"
				}
			],
			"name": "RoleRevoked",
			"type": "event"
		},
		{
			"inputs": [],
			"name": "DEFAULT_ADMIN_ROLE",
			"outputs": [
				{
					"internalType": "bytes32",
					"name": "",
					"type": "bytes32"
				}
			],
			"stateMutability": "view",
			"type": "function"
		},
		{
			"inputs": [],
			"name": "FACTORY_ROLE",
			"outputs": [
				{
					"internalType": "bytes32",
					"name": "",
					"type": "bytes32"
				}
			],
			"stateMutability": "view",
			"type": "function"
		},
		{
			"inputs": [],
			"name": "MARKETPLACE_ROLE",
			"outputs": [
				{
					"internalType": "bytes32",
					"name": "",
					"type": "bytes32"
				}
			],
			"stateMutability": "view",
			"type": "function"
		},
		{
			"inputs": [],
			"name": "STORAGE_OPERATOR_ROLE",
			"outputs": [
				{
					"internalType": "bytes32",
					"name": "",
					"type": "bytes32"
				}
			],
			"stateMutability": "view",
			"type": "function"
		},
		{
			"inputs": [],
			"name": "VENDOR_ROLE",
			"outputs": [
				{
					"internalType": "bytes32",
					"name": "",
					"type": "bytes32"
				}
			],
			"stateMutability": "view",
			"type": "function"
		},
		{
			"inputs": [
				{
					"internalType": "contract ITangibleNFT",
					"name": "category",
					"type": "address"
				}
			],
			"name": "getPriceOracleForCategory",
			"outputs": [
				{
					"internalType": "contract IPriceOracle",
					"name": "",
					"type": "address"
				}
			],
			"stateMutability": "view",
			"type": "function"
		},
		{
			"inputs": [
				{
					"internalType": "bytes32",
					"name": "role",
					"type": "bytes32"
				}
			],
			"name": "getRoleAdmin",
			"outputs": [
				{
					"internalType": "bytes32",
					"name": "",
					"type": "bytes32"
				}
			],
			"stateMutability": "view",
			"type": "function"
		},
		{
			"inputs": [
				{
					"internalType": "bytes32",
					"name": "role",
					"type": "bytes32"
				},
				{
					"internalType": "address",
					"name": "account",
					"type": "address"
				}
			],
			"name": "grantRole",
			"outputs": [],
			"stateMutability": "nonpayable",
			"type": "function"
		},
		{
			"inputs": [
				{
					"internalType": "bytes32",
					"name": "role",
					"type": "bytes32"
				},
				{
					"internalType": "address",
					"name": "account",
					"type": "address"
				}
			],
			"name": "hasRole",
			"outputs": [
				{
					"internalType": "bool",
					"name": "",
					"type": "bool"
				}
			],
			"stateMutability": "view",
			"type": "function"
		},
		{
			"inputs": [
				{
					"internalType": "contract ITangibleNFT",
					"name": "",
					"type": "address"
				}
			],
			"name": "oracleForCategory",
			"outputs": [
				{
					"internalType": "contract IPriceOracle",
					"name": "",
					"type": "address"
				}
			],
			"stateMutability": "view",
			"type": "function"
		},
		{
			"inputs": [
				{
					"internalType": "bytes32",
					"name": "role",
					"type": "bytes32"
				},
				{
					"internalType": "address",
					"name": "account",
					"type": "address"
				}
			],
			"name": "renounceRole",
			"outputs": [],
			"stateMutability": "nonpayable",
			"type": "function"
		},
		{
			"inputs": [
				{
					"internalType": "bytes32",
					"name": "role",
					"type": "bytes32"
				},
				{
					"internalType": "address",
					"name": "account",
					"type": "address"
				}
			],
			"name": "revokeRole",
			"outputs": [],
			"stateMutability": "nonpayable",
			"type": "function"
		},
		{
			"inputs": [
				{
					"internalType": "contract ITangibleNFT",
					"name": "category",
					"type": "address"
				},
				{
					"internalType": "contract IPriceOracle",
					"name": "oracle",
					"type": "address"
				}
			],
			"name": "setOracleForCategory",
			"outputs": [],
			"stateMutability": "nonpayable",
			"type": "function"
		},
		{
			"inputs": [
				{
					"internalType": "bytes4",
					"name": "interfaceId",
					"type": "bytes4"
				}
			],
			"name": "supportsInterface",
			"outputs": [
				{
					"internalType": "bool",
					"name": "",
					"type": "bool"
				}
			],
			"stateMutability": "view",
			"type": "function"
		}
	]
}